:020000040800F2
:10000000F00600202902000897160008BF14000817
:10001000951600083B0400084F1C00080000000073
:10002000000000000000000000000000A11800080F
:100030003D0400080000000099160008A3180008FD
:10004000430200084302000843020008430200087C
:10005000430200084302000843020008430200086C
:10006000430200084302000843020008430200085C
:10007000430200084302000843020008430200084C
:10008000430200084302000843020008430200083C
:10009000430200084302000843020008430200082C
:1000A000430200084302000843020008430200081C
:1000B000430200084302000843020008430200080C
:1000C00043020008430200084302000843020008FC
:1000D00043020008430200084302000843020008EC
:1000E00043020008430200084302000843020008DC
:1000F0004302000843020008711900084302000887
:1001000043020008430200084302000843020008BB
:1001100043020008430200084302000843020008AB
:10012000430200084302000843020008430200089B
:10013000430200084302000843020008430200088B
:10014000430200084302000843020008430200087B
:10015000430200084302000843020008430200086B
:10016000430200084302000843020008430200085B
:100170004302000843020008430200080000000098
:10018000430200084302000800F002F800F03CF8C7
:100190000AA090E8000C82448344AAF10107DA45E2
:1001A00001D100F031F8AFF2090EBAE80F0013F0F8
:1001B000010F18BFFB1A43F001031847D0230000BA
:1001C000F0230000103A24BF78C878C1FAD852074B
:1001D00024BF30C830C144BF04680C6070470000C1
:1001E0000023002400250026103A28BF78C1FBD840
:1001F000520728BF30C148BF0B6070471FB502F0DF
:10020000B2F91FBD10B510BD00F0E2F81146FFF7BE
:10021000F5FF01F06BFD00F000F903B4FFF7F2FF0A
:1002200003BC00F003F90000094880470948004773
:10023000FEE7FEE7FEE7FEE7FEE7FEE7FEE7FEE796
:10024000FEE7FEE704480549054A064B70470000F3
:100250006119000889010008F0000020F006002064
:10026000F0020020F002002053EA020C00F0698046
:100270002DE9F04B4FF00006002B1FBFB3FA83F5BA
:1002800003FA05F424FA05F65E4012BF1643B2FAEB
:1002900082F502FA05F4C5F120051EBF22FA05FC1D
:1002A00044EA0C04203556EA044C4FEA144418BFC3
:1002B000641C4FF000084FF00009904271EB030CF2
:1002C00039D3002919BFB1FA81F701FA07F6B0FA5C
:1002D00080F700FA07F6C7F120071EBF20FA07FCD7
:1002E00046EA0C062037B6FBF4FCA7EB0507103FE7
:1002F00007F01F0BCBF120060CFA0BFB2CFA06F6CD
:1003000044BFB3460026202FA4BF5E464FF0000B2B
:100310005BEA060C08BF4FF0010B19EB0B09ABFBB6
:10032000027C48EB0608C01B06FB02CC0BFB03CC8F
:1003300071EB0C01C1E70B46024641464846BDE859
:10034000F08B13B54FF000004FF00001AFF30080C9
:10035000BDE81C4070474FF0000200B513469446BC
:100360009646203922BFA0E80C50A0E80C50B1F10D
:100370002001BFF4F7AF090728BFA0E80C5048BF21
:100380000CC05DF804EB890028BF40F8042B08BFBF
:10039000704748BF20F8022B11F0804F18BF00F8BB
:1003A000012B704770477047704710B500F008F890
:1003B000006810BD10B5044600F002F8046010BDDE
:1003C000004870478C000020004870478C000020D7
:1003D0007546FFF7F9FFAE4605006946534620F023
:1003E0000700854618B020B5FFF72CFFBDE8204078
:1003F0004FF000064FF000074FF000084FF0000BE1
:1004000021F00701AC46ACE8C009ACE8C009ACE893
:10041000C009ACE8C0098D46704710B50446AFF37B
:1004200000802046BDE81040FFF7F7BE01491820C4
:10043000ABBEFEE7260002007047FEE7704772B6CB
:10044000FEE7000070B5044600F00CF90546601C9C
:1004500002D004480078044400F004F9401BA04294
:10046000FAD370BD1C0000202DE9F84FDFF8BCA1C5
:100470000022012503264FF00F090AF1040BAAF10F
:10048000040E00BF0B6805FA02F42340A34270D1AA
:100490000F7907F00307012F01D0022F16D18768CB
:1004A0004FEA420806FA08FC27EA0C07D1F80CC00C
:1004B0000CFA08FC4CEA070CC0F808C04768A743D0
:1004C0000C79C4F3001494403C4344600C79E44339
:1004D000A4070AD0C4684FEA420C06FA0CF7BC43E2
:1004E0008F6807FA0CF72743C7600C7904F0030400
:1004F000022C12D1D40800EB840CDCF82040570702
:10050000FF0E09FA07F824EA0804D1F8108008FA67
:1005100007F848EA0408CCF8208004684FEA420C47
:1005200006FA0CF7BC430F7907F0030707FA0CF73C
:10053000274307604C6814F4403F70D03C4C276858
:1005400047F480472760246822F0030704F48044BE
:100550000094384C07EB040CDCF8084897074FEA86
:10056000177809FA08F7BC43334FB84202D1002785
:1005700024E054E0314FB84201D101271EE0304F52
:10058000B84201D1022719E02E4FB84201D103270A
:1005900014E02D4FB84201D104270FE02B4FB84291
:1005A00001D105270AE02A4FB84201D1062705E00C
:1005B000284FB84201D1072700E0082707FA08F7BB
:1005C0002743CCF80878DAF800405746D1F804C041
:1005D0009C435FEACC2C00D51C433C60DBF8004018
:1005E0005F46D1F804C09C435FEA8C2C00D51C43C5
:1005F0003C60DEF800407746D1F804C09C435FEAD7
:100600008C3C00D51C433C60084F083F3C68D1F847
:1006100004C09C435FEACC3C00D51C433C60521CA8
:10062000102AFFF42FAFBDE8F88F0000083C01400E
:100630004438024000300140000002400004024003
:1006400000080240000C024000100240001402406A
:1006500000180240001C02400AB181617047090481
:10066000FBE7000001488068704700001C00002084
:100670000248816802781144816070471C000020A4
:100680000B4810B5016841F400710160016841F444
:1006900080610160016841F480710160032000F015
:1006A0006FF80F2000F006F800F024F8002010BDCD
:1006B000003C024070B50D4D04464FF47A71287825
:1006C000B1FBF0F00A490968B1FBF0F000F004FB5F
:1006D00048B9102C07D200222146501E00F030F8F5
:1006E00000206C6070BD012070BD00001C00002067
:1006F000280000200A4808B5016841F480410160E3
:10070000006800F4804000900548001F016841F037
:1007100080510160006800F08050009008BD00002A
:1007200044380240002809DB00F01F0201219140FB
:100730004009800000F1E020C0F80011704700007F
:10074000F0B40E4B1B680C46C3F30223C3F107053C
:10075000042D00D90425191D072901D2002300E02A
:10076000DB1E012606FA05F1491E214099409E40F4
:10077000761E16403143F0BC01F06ABA0CED00E081
:10078000064900F0070208684FF6FF03184040EAE8
:100790000220034A10430860704700000CED00E09F
:1007A0000000FA052DE9F0470E46050065D0DFF898
:1007B0001481D8F80000F7B200F00700B04207D269
:1007C00088F80070D8F8000000F00700B04254D15B
:1007D00028683D4C810712D5400703D5206840F4B6
:1007E000E05020602878000703D5206840F460407E
:1007F00020602068A96820F0F00008432060287875
:10080000C0072DD0304968680839012812D0022865
:1008100013D0032811D00968890700292DDA21682F
:1008200021F0030101432160FFF71CFF814641F2E3
:10083000883A0EE009688903EFE709688901ECE767
:10084000FFF710FFA0EB0901514502D90320BDE8D5
:10085000F0872068696800F00C00B0EB810FEFD1E1
:10086000D8F80010404601F00701B14207D90770DF
:10087000006800F00700B04201D00120E7E72878C7
:10088000400705D52068E96820F4E050084320605F
:100890002878000706D52068296920F4604040EADE
:1008A000C100206000F024F82168084AC1F3031158
:1008B000515CC8400649086006480068FFF7FAFE28
:1008C0000020C4E7003C0240083802407A250008B6
:1008D000280000202000002001490120C864704742
:1008E00000004742014800687047000028000020CF
:1008F000154810B5006810F00C02144813D01449C4
:10090000042A0FD0082A0ED10F4C241F2268236816
:1009100002F03F025B0207D52068C0F38810A0FBFD
:10092000010106E0084610BD2168C1F38811A1FB52
:1009300000010023FFF798FC2168C1F30141491C25
:100940004900B0FBF1F010BD083802400024F4006B
:1009500040787D012DE9F84F04006ED02078DFF853
:100960004C93C007A9F104054AD009F104000168BD
:10097000C1F38101012908D00068C0F38100022879
:100980000AD1D9F80000400206D52868800337D57F
:1009900060680028E1D033E06068B0F5803F10D097
:1009A000B0F5A02F286810D020F480302860286887
:1009B00020F4802028606068A8B1FFF753FE064647
:1009C0000DE0286840F48030F4E740F4802028608F
:1009D000F7E700BFFFF746FE801B642873D828683E
:1009E0008003F7D50CE0FFF73DFE064605E000BFAB
:1009F000FFF738FE801B6428F0D828688003F7D4FE
:100A00002078DFF8AC8280074FF0000A3ED5A74877
:100A1000001D016811F00C0F08D00068C0F38100C0
:100A200002280BD1D9F80000400207D428688007BB
:100A300016D5E068012800D112E033E1E068B8B1D2
:100A40000120C8F80000FFF70DFE064605E000BFD4
:100A5000FFF708FE801B0228C0D828688007F7D55A
:100A60002868216920F0F80040EAC10028600DE004
:100A7000C8F800A0FFF7F6FD064604E0FFF7F2FD18
:100A8000801B02281FD828688007F7D42078000729
:100A900022D5864F87486169703771B101210160A5
:100AA000FFF7E0FD064604E0FFF7DCFD801B0228AF
:100AB00009D838688007F7D50EE0C0F800A0FFF726
:100AC000D1FD064605E082E0FFF7CCFD801B022841
:100AD0007DD838688007F7D42078400768D5DFF8DC
:100AE000CCB100270BF13C0BDBF80000C0000BD4AD
:100AF000DBF8001041F08051CBF80010DBF800006B
:100B0000012700F0805000906B4E3068C00510D473
:100B1000306840F480703060FFF7A4FD009005E07D
:100B2000FFF7A0FD0099401A022850D83068C00590
:100B3000F6D55E4EA0686C3601280FD005283068C7
:100B400010D020F001003060306820F004003060E8
:100B5000A068B8B1FFF786FD00900FE0306840F064
:100B60000100F4E740F004003060F7E7FFF77AFD9A
:100B70000099411A41F28830814266D83068800776
:100B8000F4D50EE0FFF76EFD009007E0FFF76AFD79
:100B90000099411A41F28830814256D83068800766
:100BA000F4D42FB1DBF8001021F08051CBF8001005
:100BB000A069C8B33D49091D0968C1F38101022933
:100BC0004AD00228504607D0C8F8600000E03CE058
:100BD000FFF748FD04463BE04746C8F86000FFF7D2
:100BE00041FD064605E000BFFFF73CFD801B0228E3
:100BF0002BD828688001F7D4D4E907010843A16AFB
:100C00002E4A490802EB0141626A41EA8211084317
:100C100094F82C1040EA0161C9F8001001203866F0
:100C2000FFF720FD044606E03EE000BFFFF71AFD97
:100C3000001B022809D828688001F7D534E000BFDE
:100C4000FFF710FD001B022802D90320BDE8F88F32
:100C500028688001F4D427E00128F7D0D9F80000F3
:100C6000E26900F4800191421CD1226A00F03F0148
:100C7000914217D147F6C071626A0140B1EB821F01
:100C800010D1A26A4FF0FF3300F4403103EB52025F
:100C9000B1EB024F06D194F82C1000F07060B0EB6D
:100CA000016F01D00120D1E70020CFE704380240D6
:100CB00000004742800E4742007000400000FFFFE6
:100CC0004FF0E0210428086903D020F004000861F7
:100CD000704740F00400FAE710B5401EB0F1807F85
:100CE00001D3012010BD4FF0E02460610F21601797
:100CF00000F0AEFF0020A06107202061002010BDA1
:100D00007047704710B590F83C20012A22D001228C
:100D100080F83C20CA688C6822F4407222434C68F8
:100D200022F4806222430C6822F4006222430C69A0
:100D300022F4805222434C6922F400522243C969B2
:100D4000002322F480420A4301684A6480F83C3060
:100D5000002010BD022010BD70B590F83C20012A83
:100D600032D0012480F83C40022280F83D20036804
:100D70005A689D6822F070060A6832435A60134B25
:100D800002689A4214D0B2F1804F11D0104B9A42AF
:100D90000ED0104B9A420BD00F4B9A4208D00F4BFB
:100DA0009A4205D00E4B9A4202D00E4B9A4204D181
:100DB000496825F080031943916080F83D40002187
:100DC00080F83C10084670BD022070BD0000014054
:100DD0000004004000080040000C004000040140F6
:100DE000004001400018004010B5040003D094F802
:100DF0003D0010B107E0012010BD002084F83C0048
:100E0000204600F01FF8022084F83D00211D2068D4
:100E100000F0B4FD012084F8460084F83E0084F818
:100E20003F0084F8400084F8410084F8420084F8D0
:100E3000430084F8440084F8450084F83D00002015
:100E400010BD000008B500680B49884212D10B485C
:100E5000016841F0020101600068002200F0020018
:100E6000009011462E20FFF76BFCBDE808402E20B5
:100E7000FFF758BC08BD00000004014044380240A0
:100E800090F83D10012901D001207047022180F81F
:100E90003D1000681149884214D0B0F1804F11D044
:100EA0000F4988420ED00F4988420BD00E49884224
:100EB00008D00E49884205D00D49884202D00D491C
:100EC000884204D1816801F00701062903D0016836
:100ED00041F0010101600020704700000000014066
:100EE0000004004000080040000C004000040140E5
:100EF000004001400018004070B5044690F83C00E6
:100F00000025012817D0012684F83C60022084F8CF
:100F10003D002068826822F0770222F47F428260DE
:100F20000868502838D00DDC20284FD005DC90B35D
:100F3000102811D14AE0022070BD302846D0402848
:100F40000AD13BE060282FD070280DD0B0F5805F2B
:100F500003D0B0F5005F12D0012584F83D60002079
:100F600084F83C00284670BDCB68D1E90121206897
:100F700000F075FD2068816841F0770109E0CB68D9
:100F8000D1E90121206800F06AFD2068816841F400
:100F900080418160E1E719E0CA684968206800F093
:100FA00033FE5021206806E0CA684968206800F0D6
:100FB0003CFE6021206800F05CFDCEE7CA6849680D
:100FC000206800F021FE40212068F4E722680146F5
:100FD0001046F0E7704770B50446006801694FF0AD
:100FE0000005C943890715D4C168C943890711D4CD
:100FF000E91E016101202077206880698007204672
:1010000002D0FFF7E7FF04E000F0ECF8204600F024
:1010100053FA257720680169C943490717D4C16885
:10102000C943490713D46FF00401016102202077FE
:101030002068806910F4407F204602D0FFF7CAFF85
:1010400004E000F0CFF8204600F036FA257720685B
:101050000169C943090716D4C168C943090712D4F5
:101060006FF008010161042020772068C0698007C3
:10107000204602D0FFF7AEFF04E000F0B3F82046B0
:1010800000F01AFA257720680169C943C90617D408
:10109000C168C943C90613D46FF01001016108206B
:1010A00020772068C06910F4407F204602D0FFF707
:1010B00091FF04E000F096F8204600F0FDF9257756
:1010C00020680169C943C90708D1C168C943C90774
:1010D00004D1891E0161204600F0EFF92068016902
:1010E000C943090609D4C168C943090605D46FF08C
:1010F000800101612046FFF703FE20680169C943B2
:10110000490609D4C168C943490605D46FF04001B6
:101110000161204600F0D2F920680169C9438906BF
:101120000BD4C168C943890607D46FF0200101615F
:101130002046BDE87040FFF7E4BD70BD10B586B035
:10114000044614216846FFF706F90E4920688842D4
:1011500015D10D480021026842F4807202600068D7
:1011600000F480700590202000900220CDE901015C
:1011700003900320049069460448FFF775F906B010
:1011800010BD000000040140303802400020024041
:1011900070B5044690F83C00002501280FD00120CE
:1011A00084F83C006AB1042A0FD0082A11D00C2A16
:1011B00013D00125002084F83C00284670BD022091
:1011C00070BD206800F05EFCF4E7206800F08AFC47
:1011D000F0E7206800F0BCFCECE7206800F0ECFCD5
:1011E000E8E700002DE9FE435A4900270097086808
:1011F0003C46C268D24392077CD46FF0020988460D
:10120000C0F810900868416A534E0091726811440A
:1012100000914163514D6878401C687068780228DD
:1012200068D16F70317841B101200223012916D0B5
:10123000022962D0032911D148E0AF60EF6000229B
:101240001146474800F0FEFBD8F80010C1F8109096
:10125000012202214348FFF7FFF92F7075E0A968CA
:10126000491CA96071780029696823D0491E69600A
:101270007169491C71617168EA6802EB4101726928
:1012800000EB820291FBF2F17268511A8CB2716824
:10129000EA6802EB4101726900EB820091FBF0F217
:1012A00000FB1210E860B068A968884204D8F068B2
:1012B00070611DE0491CDAE73069A04245DB6C80B3
:1012C0003069EF6084B2032030703EE0A868401CB3
:1012D000A8607078002868680DD0401E686030698A
:1012E00084B2B068A96888422FD8F06870616C88B1
:1012F00033702AE02AE0401CF0E7A968491CA96085
:1013000071780029696823D0491E69607169491C98
:1013100071617168EA6802EB4101726900EB820257
:1013200091FBF2F17268511A8CB27168EA6802EBB3
:101330004101726900EB820091FBF0F200FB121098
:10134000E8607069002800DB37707460BDE8FE83D8
:10135000491CDAE72C000020740000200C0000205B
:10136000000401400010024010B5040003D094F8BE
:101370003D0010B107E0012010BD002084F83C00C2
:10138000204600F01EF8022084F83D00211D206850
:1013900000F0F4FA012084F8460084F83E0084F856
:1013A0003F0084F8400084F8410084F8420084F84B
:1013B000430084F8440084F8450084F83D00002090
:1013C00010BD704730B500250446022249B10429FA
:1013D00012D008294CD094F84100012853D00120A4
:1013E00030BD94F83E000128F9D184F83E202068F1
:1013F000C26842F0020209E094F83F000128EED1F1
:1014000084F83F202068C26842F00402C2600122D2
:10141000206800F017FB21492068214A884201D04A
:10142000904203D1436C43F40043436420688842F4
:1014300013D0B0F1804F10D01A4988420DD01A490C
:1014400088420AD01949884207D0904205D01849ED
:10145000884202D01749884204D1816801F007010F
:10146000062903D0016841F001010160284630BD22
:1014700094F840000128B2D184F840202068C26866
:1014800042F00802C2E784F841200C2901D001256E
:10149000ECE72068C26842F01002B7E700000140A4
:1014A000000401400004004000080040000C00401F
:1014B0000040014000180040704770477047FEE749
:1014C00070B586B014216846FEF745FF2E4800240B
:1014D000016841F004010160016801F00401059117
:1014E000016841F080010160016801F0800105910F
:1014F000016841F001010160016801F001010591FD
:10150000016841F040010160016801F0400105916E
:10151000016841F010010160016801F010010591BE
:10152000016841F4807101600068184E00F4807019
:101530000590002203213046FFF78EF84FF400504B
:10154000CDE90004694612480294FEF78DFF01259B
:10155000CDE9005469460F480294FEF785FF1C2030
:10156000CDE9000469460C480294FEF77DFF032094
:10157000CDE900050220CDE9024069463046FEF77C
:1015800073FF06B070BD000030380240001002400A
:10159000000802400000024000180240F0B595B07B
:1015A00000240F9410941194129413941C2108A8F1
:1015B0001494FEF7D0FE20216846FEF7CCFE344D91
:1015C000324E052040C54FF6FF7791C5304845F8AB
:1015D00010496C61AC61FFF707FC08B1FEF72FFF03
:1015E0004FF480500F900FA92948FFF785FC08B1F0
:1015F000FEF725FF2648FFF7B7FE08B1FEF71FFFED
:10160000139413A922481494FFF7A6FB08B1FEF720
:1016100016FF3020CDE9080702200A900820CDE906
:101620000B040D94002208A919480E94FFF7B0FD91
:1016300008B1FEF704FF00944FF40050CDE90440D8
:10164000029401940394694611480794FFF75AFBEA
:1016500008B1FEF7F4FE00221146304600F0F2F920
:1016600029686FF0020008612868C16841F0020132
:10167000C1602868416C41F4004141640448FFF7AF
:10168000FFFB0348FFF75AFD15B0F0BD0004014011
:101690002C000020FEE7FEE7704700002DE9F04F28
:1016A0000546724899462DED048B83B0904600782C
:1016B0000F4600287DD101266D4C002D07DA66709B
:1016C000002201216B48FEF7C7FF6D4206E00020B3
:1016D0006070012211466748FEF7BEFF012D71D0F0
:1016E000002D68D0DFF890A14FF0060BDAF800105B
:1016F000B1FBFBF000EE100AB8EE400ADFED5F0A26
:1017000060EE200A00EE109AB8EE400A80EE801AD1
:10171000BDEEC10A10EE100A206100EE107AF8EE5C
:10172000400A9FED571A81EE200A10EE100A00F0D1
:10173000A9FE41EC100B00F09BFADAF80010B0EEB5
:10174000409AB1FBFBF0F0EE609A00F0BEFC9FED1A
:101750004D1B53EC112B00F0CBFC9FED4C8B53EC4D
:10176000182B00F02BFB00F0F7FA00F08BFE53EC87
:10177000192B00F0BDFC53EC182B00F01FFB00F000
:1017800075FC606000EE107AB8EE400ADFED410AA9
:10179000B2EE041A09FB09F020EE200AC0EE010A9D
:1017A00000EE100AB8EE400A80EE201ABCEEC10A24
:1017B00002E055E006E038E010EE100A8DED000A78
:1017C00048B109E04FF0FF306061022020704FF413
:1017D0007A70606029E0009605FB08F007EB0801CD
:1017E000B0FBF1F0019000B90196DDE900108842EC
:1017F00001D8401B04E001FB07F0B0FBF8F04042C9
:10180000E060E06810B94FF0FF30E060E068284425
:10181000A06060682169884204DC20696060032060
:10182000207000E0267000206061104806701A48A1
:101830000068416AADF800106168BDF800201144ED
:10184000416301220021154800F0FCF803B000229A
:10185000BDEC048B0221BDE8F04F0648FEF7FCBE4C
:1018600003B0BDEC048BBDE8F08F00000C0000203D
:1018700074000020001002402800002072D9203C93
:10188000705944436F1283C0CAA1E53F00000000B5
:1018900000002440CF0F493E2C00002000040140EE
:1018A0007047FEF7E5BE000030B593B030216846C2
:1018B000FEF751FD14210CA8FEF74DFD264800252A
:1018C000016841F080510160006800F08050119083
:1018D0002248016841F4804101600068022400F45C
:1018E00080401190012003901020049000940694F1
:1018F0000820CDE90750A820CDE9090404200B9069
:101900006846FFF727F808B172B6FEE70CA90F206A
:1019100081E831004FF4A0500F904FF480501090A8
:1019200005210CA8FEF73EFF08B172B6FEE7FEF7F0
:10193000D3FFFEF7D7FF4FF47A71B0FBF1F0FFF75A
:10194000CBF90420FFF7BCF900221146501EFEF728
:10195000F7FE13B030BD0000403802400070004078
:101960000248016841F470010160704788ED00E0B1
:101970000148FFF730BB00002C000020F0B50268E2
:10198000254C264D264E274F274B4FF0804CA0422A
:1019900009D0604507D0A84205D0B04203D0B84274
:1019A00001D0984204D122F0700E4A6842EA0E0239
:1019B000A0421BD0604519D0A84217D0B04215D024
:1019C000B84213D0984211D0184DA8420ED0184DED
:1019D000A8420BD0174DA84208D0174DA84205D0F9
:1019E000164DA84202D0164DA84203D122F44075EC
:1019F000CA682A434D6922F080022A4302608A683D
:101A0000C2620A688262A04201D0984201D109698B
:101A1000016301214161F0BD00000140000400406C
:101A200000080040000C004000040140004001405C
:101A3000004401400048014000180040001C0040E4
:101A40000020004010B501F01F030121046A9940F5
:101A50008C430462016A9A401143016210BD10B5C3
:101A6000846842EA032224F47F440A4322438260CA
:101A700010BD826822F070020A4342F007018160C3
:101A800070470000F0B5026A22F001020262036AA8
:101A900042688469124E24F073050C682C4323F0CD
:101AA00002058B682B430D4DA84201D0B04205D1F1
:101AB00023F00807CB683B4323F00403A84201D07E
:101AC000B04205D14D6922F4407215438A692A4318
:101AD00042608461496841630362F0BD00000140D7
:101AE00000040140F0B5026A22F010020262026AAC
:101AF000436884690D6824F4E64444EA05248D684B
:101B000022F0200242EA05120F4D104EA84201D0E9
:101B1000B04206D1CF6822F0800242EA071222F0DA
:101B20004002A84201D0B04207D14D6923F440637E
:101B300043EA85038D6943EA85034360846149680C
:101B400081630262F0BD000000000140000401401A
:101B5000F0B5026A22F480720262026A4368C469C4
:101B600022F4007224F073050C68124E2C438D6829
:101B700042EA05220E4DA84201D0B04206D1CF68FC
:101B800022F4006242EA072222F48062A84201D0D5
:101B9000B04207D14D6923F4405343EA05138D69E0
:101BA00043EA05134360C4614968C1630262F0BD42
:101BB000000001400004014030B5026A22F4805266
:101BC0000262046A4268C3690D6823F4E64343EA8B
:101BD00005238D6824F4005444EA0534084DA842D6
:101BE00002D0084DA84204D14D6922F4804242EA55
:101BF00085124260C36149680164046230BD00001F
:101C0000000001400004014010B5036A046A24F09A
:101C100001040462846924F0F00444EA021423F00D
:101C20000A020A438461026210BD10B5036A23F000
:101C3000100303628369046A23F4704343EA0232A7
:101C400024F0A00343EA01118261016210BDFEE7A6
:101C50000907090E002804DB00F1E02080F80014D9
:101C6000704700F00F0000F1E02080F8141D70476D
:101C700000B52DED048BB0EE409AF0EE609A83B083
:101C800051EC190B00F032FB41EC180B18EE100A66
:101C900018EE901A8DED008B002818BF0120084324
:101CA00020F00040C0F17F6000F1E040C00F14D090
:101CB00019EE101A19EE900A8DED009B002918BF3D
:101CC0000121084320F00040C0F17F6000F1E040B6
:101CD000C00F04BF0120FEF76DFBB0EE480A03B051
:101CE000F0EE680ABDEC048B00BD00000025FEF795
:101CF000C7FCFFF7D9FDFFF7E3FBFFF74FFC1348E5
:101D0000FFF7BEF800211148FFF75CFB00221146E7
:101D10000F48FFF797FE4FF4FA270E4C0126C7F144
:101D2000000841F2883900BF36EA0500236805F152
:101D30000105A268616801D0384600E04046FFF71F
:101D4000ADFC4846FEF77EFBEEE700002C000020CD
:101D5000000401400000002021F00042A2F1605286
:101D6000B2F5801F01F0004328BFD2F17F6C0BD980
:101D70005FEA001C43EAC20242EB507018BF704792
:101D800028BF20F001007047B2F5801FBCBF184685
:101D900070474FEA410C1CF5001F02D2084600F0C4
:101DA000E7BB70B500F04EFA00000089FFF7F6BF00
:101DB0004FF00040A0F58000704700002DE9C041C1
:101DC00030B4DFF8A0C23CEA111418BF3CEA131487
:101DD00000F0EC8081EA03051CEA111444EAD57492
:101DE00018BF1CEA131500F0C780A4EB05044FF0E0
:101DF000004545EAC12145EAC32341EA505143EA7F
:101E0000525304F17F74994204F500344FEAC02024
:101E10004FEAC22208BF904200F09C804FEA13654F
:101E20000FF24016765D4FEA134506FB05F7C7F142
:101E3000807706FB07F74FEAD737A7FB03687642A0
:101E4000C8F58038A7FB06CE38BFA8F1010807FB0C
:101E500008E64FF0000EA6FB028CE6FB03CEDCF199
:101E6000000CCEF1004E38BFAEF1010EA6FB0C58AF
:101E70004FF000074FF00005E6FB0E87A1FB08C6F8
:101E8000A0FB07CE16EB0E0645F10005E1FB07654A
:101E900015F1E04E7EBFA4F580345FEA46066D4141
:101EA00016F1800745F100054FEA17274FEA06664D
:101EB00047EA0567A6F1DE46B6F1805F4FEA1525D1
:101EC0001FD9384624F0010C05EBC471BCF1FE6F3C
:101ED00001EB0C1102D8F0BCBDE8008124425CBFCC
:101EE00001F5801E9EEAC47F02D4F0BCBDE80081EB
:101EF000244238D4F0BCA1F1C041BDE8004100F05B
:101F0000EFB94FEAD22242EA43524FEAD323A7FB6A
:101F100002864FEAD02040EA415007FB03661EEAE2
:101F20000E0F4FEAD12105FB026658BFA6EB005603
:101F3000B6EB00564FEA520E4EEAC37E18EB0E0E79
:101F400056EB530EBDD518EB02085E417F1C55F1D0
:101F50000005B6E74FF480154FF000074FF000067C
:101F60004FF00008ADE7F0BC4FF0000001F1C041B8
:101F700001F00041BDE8008111EA0C1F0CEA1315C5
:101F800000D00CE013EA0C1F00F025804FF0000099
:101F9000F0BC81EA030101F00041BDE80081F0BC22
:101FA000BDE8004181EA030100F09AB9F0BCBDE848
:101FB000004170B500F046F9097EFC3E00F007B81C
:101FC00081EA03014FF0000001F00041704781EA0F
:101FD000030100F085B9F0BCBDE800414FF00000FE
:101FE00021497047FFFDFBF9F7F5F4F2F0EEEDEB58
:101FF000E9E8E6E4E3E1E0DEDDDBDAD8D7D5D4D307
:10200000D1D0CFCDCCCBCAC8C7C6C5C4C2C1C0BF52
:10201000BEBDBCBBBAB9B8B7B6B5B4B3B2B1B0AF58
:10202000AEADACABAAA9A8A8A7A6A5A4A3A3A2A13C
:10203000A09F9F9E9D9C9C9B9A99999897979695F7
:1020400095949393929191908F8F8E8E8D8C8C8B93
:102050008B8A89898888878786858584848383821B
:10206000828181800000FF070000F87F4FEA410372
:102070004FEA5353A3F58063D3F11E03C8BFD3F1D6
:10208000210C0CDD4FF0004242EAC12242EA5052DC
:1020900032FA03FC8CEAE17CACEBE1707047102B68
:1020A000C4BF0020704703F5787CBCF1FF3F04D02B
:1020B0006FF0004282EA2100704770B500F0C2F86C
:1020C0004992248000207047F2E7B0FA80F310FABA
:1020D00003F10AD0C3F11D0303F580634FEA4150B9
:1020E0004FEA035202EBD12170474FF000007047D6
:1020F000DFF848C170B51CEA111E1EBF1CEA13159B
:102100009EEA0C0F95EA0C0F00F06F8081EA030441
:1021100023EA4C134EEAD47E21EA4C1141F480119B
:1021200043F48013AE44A1FB024CA0FB0365AEF167
:102130007F7E361955EB0C05A1FB034C4CF10003D7
:10214000A0FB021C16EB0C06654153F1000309428B
:1021500018BF46F0010613F4007F0BD14FEA03319C
:102160004FEA0530340341EA155140EA16506FF04A
:1021700003020AE04FEAC3214FEAC520F40241EA14
:10218000555140EA56506FF0020202EB2E4201EB2D
:10219000025585EACE710AD05FEA440C18BF24F0DC
:1021A000004450F1000041F1000120EAD47040F2F7
:1021B000FE7C624500D270BDA84214BF4FF080443F
:1021C0004FF04044002E08BF0024BEF1806FA8BF2E
:1021D000A1F1C041BDE8704080F282804FF0000064
:1021E00001F1C04101F0004170479EEA0C0F0CEA7A
:1021F000131518BF95EA0C0F06D04FF0000081EAC6
:10220000030E0EF0004170BD00F01CF88900013E85
:1022100000F007B800F009B84FEA430C5FEA5C5CD5
:1022200008D081EA030100F05BB84FEA410C5FEA95
:102230005C5CF6D14FF00000014970470000FF07D9
:102240000000F87F0EF1020E2EF0030E5EF8046B14
:10225000364205D4012A43EB030515F5001F12D8B9
:10226000012841EB010C1CF5001F0CD80ED14FEAE0
:10227000D17C15F5001F0CEB4C0C0CF1020C08BFC7
:102280004CEBD37C04E04FF0080C01E04FEAD37C28
:102290000CEB4C0526FA05F606F00706B6F1040C21
:1022A00006D20EEB860CBDE870404CF0010C604786
:1022B000DFE80CF0090B02024FF000414FF0000084
:1022C000A1F5002170BD19461046012851EB01040B
:1022D00018BFD4F5001484BF002001F0004170BD88
:1022E0000808A0F500114FEA310170472DE9F041CF
:1022F00001F5801CBCF5001FC0F2A9804FEA115CFB
:1023000021EA0C510CF1FD0C41F480115FEA5C0CE8
:102310000CF5C07C01D34000494130A4890241EA58
:10232000905187028E0E0A0CA45D04FB04F602FB9A
:1023300006F6C6F14046A4FB0662F60D46EA4226C2
:1023400006FB06F4A4FB01235242C3F1404338BF0D
:102350005B1EA6FB02420024E6FB0324D20B42EAEA
:102360004446A6FB0623A1FB02E2A3FB07E4E3FB32
:1023700061426442C2F1404E38BFAEF1010EA6FB8D
:1023800004234FF00002E6FB0E32A2FB03463400AA
:10239000E2FB6264A1FB06E6A4FB07E8E4FB6168DC
:1023A0007642C8F1405838BFA8F10108A2FB06E404
:1023B000A3FB08E5E2FB6854A1FB05E6A7FB04E8E4
:1023C000E1FB648618F1200556F10006A809A8F182
:1023D0001B08B10908F03F08B8F10A0F40EA86600F
:1023E0001CD901EB0C51BDE8F08100BFFCF5EEE813
:1023F000E2DDD8D3CFCBC7C3C0BDB9B6B4B1AEACA4
:10240000A9A7A5A3A19F9D9B9A9896959392908F1B
:102410008D8C8B898887868584838281A0FB006868
:1024200000FB01F208EB4208B8EB872807D5341807
:1024300058EB0104D5D5401C51F10001D1E7341A05
:1024400078EB0104CDD4401E71F10001C9E75FEAC9
:102450004C0C5FEA9C5C0DD105D34FF0000001F0FD
:102460000041BDE8F081BDE8F04170B5FFF7EAFE3C
:102470006DDBFFBEBDE8F0414FF000000049704742
:102480000000F87F43004FEAD30C4FEA3C0C434076
:102490001FBF40070CF1605113F0FE4F70471CF056
:1024A000006F03D100200CF0004170470CF0004396
:1024B00043EA507010B540EACC0000F00EF800BFBF
:1024C000000000924FEA0001FFF70ABF4FF0004101
:1024D0004FF00000A1F5002170470EF1020E2EF022
:1024E000030E5EF8044B244204D44FEA4102B2F1D9
:1024F0007F4F11D84FEA4003B3F17F4F0CD80ED174
:102500004FEAD07CB2F17F4F0CEB4C0C0CF1020C7B
:1025100008BF4CEBD17C04E04FF0080C01E04FEA1F
:10252000D17C0CEB4C0324FA03F404F00704B4F15F
:10253000040C06D20EEB840CBDE810404CF0010CEC
:102540006047DFE80CF0070802024FF00040A0F5FA
:10255000800010BD0846420018BFD2F1807288BFCB
:1025600000F0004010BD4FF04070E1EE100A7047DF
:10257000FF2141EAD050C005704700000000000074
:10258000000001020304060708090000AC2500084A
:10259000000000202C000000C4010008D82500081D
:1025A0002C000020C4060000E0010008B80B000069
:1025B0000A0000000A000000000000000000000007
:1025C00000000000000000000100000010000000FA
:0825D000000000000024F400EB
:040000050800018965
:00000001FF
